{
  "_format": "hh-sol-artifact-1",
  "contractName": "Upload",
  "sourceName": "contracts/Upload.sol",
  "abi": [
    {
      "anonymous": false,
      "inputs": [
        {
          "indexed": true,
          "internalType": "address",
          "name": "owner",
          "type": "address"
        },
        {
          "indexed": false,
          "internalType": "string",
          "name": "ipfsCid",
          "type": "string"
        },
        {
          "indexed": false,
          "internalType": "string",
          "name": "imageHash",
          "type": "string"
        },
        {
          "indexed": false,
          "internalType": "uint256",
          "name": "timestamp",
          "type": "uint256"
        }
      ],
      "name": "ImageAdded",
      "type": "event"
    },
    {
      "anonymous": false,
      "inputs": [
        {
          "indexed": true,
          "internalType": "string",
          "name": "ipfsCid",
          "type": "string"
        },
        {
          "indexed": true,
          "internalType": "address",
          "name": "owner",
          "type": "address"
        },
        {
          "indexed": true,
          "internalType": "address",
          "name": "viewer",
          "type": "address"
        }
      ],
      "name": "ItemAccessGranted",
      "type": "event"
    },
    {
      "anonymous": false,
      "inputs": [
        {
          "indexed": true,
          "internalType": "string",
          "name": "ipfsCid",
          "type": "string"
        },
        {
          "indexed": true,
          "internalType": "address",
          "name": "owner",
          "type": "address"
        },
        {
          "indexed": true,
          "internalType": "address",
          "name": "viewer",
          "type": "address"
        }
      ],
      "name": "ItemAccessRevoked",
      "type": "event"
    },
    {
      "inputs": [
        {
          "internalType": "string",
          "name": "_ipfsCid",
          "type": "string"
        },
        {
          "internalType": "string",
          "name": "_imageHash",
          "type": "string"
        }
      ],
      "name": "add",
      "outputs": [],
      "stateMutability": "nonpayable",
      "type": "function"
    },
    {
      "inputs": [
        {
          "internalType": "string",
          "name": "_cid",
          "type": "string"
        },
        {
          "internalType": "address",
          "name": "_viewer",
          "type": "address"
        }
      ],
      "name": "checkItemAccess",
      "outputs": [
        {
          "internalType": "bool",
          "name": "",
          "type": "bool"
        }
      ],
      "stateMutability": "view",
      "type": "function"
    },
    {
      "inputs": [
        {
          "internalType": "string",
          "name": "",
          "type": "string"
        }
      ],
      "name": "cidToRecord",
      "outputs": [
        {
          "internalType": "string",
          "name": "ipfsCid",
          "type": "string"
        },
        {
          "internalType": "string",
          "name": "imageHash",
          "type": "string"
        },
        {
          "internalType": "address",
          "name": "owner",
          "type": "address"
        },
        {
          "internalType": "uint256",
          "name": "timestamp",
          "type": "uint256"
        }
      ],
      "stateMutability": "view",
      "type": "function"
    },
    {
      "inputs": [],
      "name": "getAccessibleCIDsAndHashes",
      "outputs": [
        {
          "internalType": "string[]",
          "name": "cids",
          "type": "string[]"
        },
        {
          "internalType": "string[]",
          "name": "hashes",
          "type": "string[]"
        },
        {
          "internalType": "address[]",
          "name": "owners",
          "type": "address[]"
        }
      ],
      "stateMutability": "view",
      "type": "function"
    },
    {
      "inputs": [
        {
          "internalType": "string",
          "name": "_cid",
          "type": "string"
        },
        {
          "internalType": "address",
          "name": "_viewer",
          "type": "address"
        }
      ],
      "name": "grantItemAccess",
      "outputs": [],
      "stateMutability": "nonpayable",
      "type": "function"
    },
    {
      "inputs": [
        {
          "internalType": "string",
          "name": "",
          "type": "string"
        },
        {
          "internalType": "address",
          "name": "",
          "type": "address"
        }
      ],
      "name": "itemAccess",
      "outputs": [
        {
          "internalType": "bool",
          "name": "",
          "type": "bool"
        }
      ],
      "stateMutability": "view",
      "type": "function"
    },
    {
      "inputs": [
        {
          "internalType": "string",
          "name": "_cid",
          "type": "string"
        },
        {
          "internalType": "address",
          "name": "_viewer",
          "type": "address"
        }
      ],
      "name": "revokeItemAccess",
      "outputs": [],
      "stateMutability": "nonpayable",
      "type": "function"
    },
    {
      "inputs": [
        {
          "internalType": "address",
          "name": "",
          "type": "address"
        },
        {
          "internalType": "uint256",
          "name": "",
          "type": "uint256"
        }
      ],
      "name": "sharedWithUserCIDs",
      "outputs": [
        {
          "internalType": "string",
          "name": "",
          "type": "string"
        }
      ],
      "stateMutability": "view",
      "type": "function"
    },
    {
      "inputs": [
        {
          "internalType": "address",
          "name": "",
          "type": "address"
        },
        {
          "internalType": "uint256",
          "name": "",
          "type": "uint256"
        }
      ],
      "name": "userOwnedCIDs",
      "outputs": [
        {
          "internalType": "string",
          "name": "",
          "type": "string"
        }
      ],
      "stateMutability": "view",
      "type": "function"
    }
  ],
  "bytecode": "0x608060405234801561001057600080fd5b50612d40806100206000396000f3fe608060405234801561001057600080fd5b50600436106100935760003560e01c80637fc84b0f116100665780637fc84b0f146101475780638b8753f114610163578063a23e95b814610193578063ebdf86ca146101c3578063f8931721146101df57610093565b80631d0a3a55146100985780634a93aa72146100c857806351ca0791146100f85780636fc1581c14610114575b600080fd5b6100b260048036038101906100ad9190611ed9565b6101ff565b6040516100bf9190611fb2565b60405180910390f35b6100e260048036038101906100dd9190612109565b6102b8565b6040516100ef9190612180565b60405180910390f35b610112600480360381019061010d9190612109565b6103e9565b005b61012e6004803603810190610129919061219b565b6109d5565b60405161013e9493929190612202565b60405180910390f35b610161600480360381019061015c9190612109565b610b4b565b005b61017d60048036038101906101789190611ed9565b611001565b60405161018a9190611fb2565b60405180910390f35b6101ad60048036038101906101a89190612109565b6110ba565b6040516101ba9190612180565b60405180910390f35b6101dd60048036038101906101d89190612255565b6110ff565b005b6101e76113e8565b6040516101f693929190612497565b60405180910390f35b6003602052816000526040600020818154811061021b57600080fd5b9060005260206000200160009150915050805461023790612512565b80601f016020809104026020016040519081016040528092919081815260200182805461026390612512565b80156102b05780601f10610285576101008083540402835291602001916102b0565b820191906000526020600020905b81548152906001019060200180831161029357829003601f168201915b505050505081565b60006005836040516102ca9190612580565b908152602001604051809103902060009054906101000a900460ff166102f357600090506103e3565b600080846040516103049190612580565b908152602001604051809103902090508273ffffffffffffffffffffffffffffffffffffffff168160020160009054906101000a900473ffffffffffffffffffffffffffffffffffffffff1673ffffffffffffffffffffffffffffffffffffffff1614156103765760019150506103e3565b6002846040516103869190612580565b908152602001604051809103902060008473ffffffffffffffffffffffffffffffffffffffff1673ffffffffffffffffffffffffffffffffffffffff16815260200190815260200160002060009054906101000a900460ff169150505b92915050565b6005826040516103f99190612580565b908152602001604051809103902060009054906101000a900460ff16610454576040517f08c379a000000000000000000000000000000000000000000000000000000000815260040161044b906125e3565b60405180910390fd5b600080836040516104659190612580565b908152602001604051809103902090503373ffffffffffffffffffffffffffffffffffffffff168160020160009054906101000a900473ffffffffffffffffffffffffffffffffffffffff1673ffffffffffffffffffffffffffffffffffffffff1614610507576040517f08c379a00000000000000000000000000000000000000000000000000000000081526004016104fe90612675565b60405180910390fd5b6002836040516105179190612580565b908152602001604051809103902060008373ffffffffffffffffffffffffffffffffffffffff1673ffffffffffffffffffffffffffffffffffffffff16815260200190815260200160002060009054906101000a900460ff166105af576040517f08c379a00000000000000000000000000000000000000000000000000000000081526004016105a690612707565b60405180910390fd5b60006002846040516105c19190612580565b908152602001604051809103902060008473ffffffffffffffffffffffffffffffffffffffff1673ffffffffffffffffffffffffffffffffffffffff16815260200190815260200160002060006101000a81548160ff0219169083151502179055506000600460008473ffffffffffffffffffffffffffffffffffffffff1673ffffffffffffffffffffffffffffffffffffffff168152602001908152602001600020846040516106729190612580565b9081526020016040518091039020549050600081116106c6576040517f08c379a00000000000000000000000000000000000000000000000000000000081526004016106bd90612799565b60405180910390fd5b6001816106d391906127e8565b90506000600360008573ffffffffffffffffffffffffffffffffffffffff1673ffffffffffffffffffffffffffffffffffffffff16815260200190815260200160002090508080549050821061075e576040517f08c379a000000000000000000000000000000000000000000000000000000000815260040161075590612868565b60405180910390fd5b6001818054905061076f91906127e8565b8210156108d0576000816001838054905061078a91906127e8565b8154811061079b5761079a612888565b5b9060005260206000200180546107b090612512565b80601f01602080910402602001604051908101604052809291908181526020018280546107dc90612512565b80156108295780601f106107fe57610100808354040283529160200191610829565b820191906000526020600020905b81548152906001019060200180831161080c57829003601f168201915b505050505090508082848154811061084457610843612888565b5b906000526020600020019080519060200190610861929190611d4e565b5060018361086f91906128b7565b600460008773ffffffffffffffffffffffffffffffffffffffff1673ffffffffffffffffffffffffffffffffffffffff168152602001908152602001600020826040516108bc9190612580565b908152602001604051809103902081905550505b808054806108e1576108e061290d565b5b6001900381819060005260206000200160006108fd9190611dd4565b9055600460008573ffffffffffffffffffffffffffffffffffffffff1673ffffffffffffffffffffffffffffffffffffffff1681526020019081526020016000208560405161094c9190612580565b9081526020016040518091039020600090558373ffffffffffffffffffffffffffffffffffffffff163373ffffffffffffffffffffffffffffffffffffffff168660405161099a9190612580565b60405180910390207fe88cd3b008e8bece66a6b5cf4bef2433f7deb1dbd8718fcc1639077e69b885c160405160405180910390a45050505050565b600081805160208101820180518482526020830160208501208183528095505050505050600091509050806000018054610a0e90612512565b80601f0160208091040260200160405190810160405280929190818152602001828054610a3a90612512565b8015610a875780601f10610a5c57610100808354040283529160200191610a87565b820191906000526020600020905b815481529060010190602001808311610a6a57829003601f168201915b505050505090806001018054610a9c90612512565b80601f0160208091040260200160405190810160405280929190818152602001828054610ac890612512565b8015610b155780601f10610aea57610100808354040283529160200191610b15565b820191906000526020600020905b815481529060010190602001808311610af857829003601f168201915b5050505050908060020160009054906101000a900473ffffffffffffffffffffffffffffffffffffffff16908060030154905084565b600582604051610b5b9190612580565b908152602001604051809103902060009054906101000a900460ff16610bb6576040517f08c379a0000000000000000000000000000000000000000000000000000000008152600401610bad906125e3565b60405180910390fd5b600073ffffffffffffffffffffffffffffffffffffffff168173ffffffffffffffffffffffffffffffffffffffff161415610c26576040517f08c379a0000000000000000000000000000000000000000000000000000000008152600401610c1d90612988565b60405180910390fd5b60008083604051610c379190612580565b908152602001604051809103902090503373ffffffffffffffffffffffffffffffffffffffff168160020160009054906101000a900473ffffffffffffffffffffffffffffffffffffffff1673ffffffffffffffffffffffffffffffffffffffff1614610cd9576040517f08c379a0000000000000000000000000000000000000000000000000000000008152600401610cd090612a1a565b60405180910390fd5b3373ffffffffffffffffffffffffffffffffffffffff168273ffffffffffffffffffffffffffffffffffffffff161415610d48576040517f08c379a0000000000000000000000000000000000000000000000000000000008152600401610d3f90612aac565b60405180910390fd5b600283604051610d589190612580565b908152602001604051809103902060008373ffffffffffffffffffffffffffffffffffffffff1673ffffffffffffffffffffffffffffffffffffffff16815260200190815260200160002060009054906101000a900460ff1615610df1576040517f08c379a0000000000000000000000000000000000000000000000000000000008152600401610de890612b18565b60405180910390fd5b6001600284604051610e039190612580565b908152602001604051809103902060008473ffffffffffffffffffffffffffffffffffffffff1673ffffffffffffffffffffffffffffffffffffffff16815260200190815260200160002060006101000a81548160ff0219169083151502179055506001600360008473ffffffffffffffffffffffffffffffffffffffff1673ffffffffffffffffffffffffffffffffffffffff16815260200190815260200160002080549050610eb491906128b7565b600460008473ffffffffffffffffffffffffffffffffffffffff1673ffffffffffffffffffffffffffffffffffffffff16815260200190815260200160002084604051610f019190612580565b908152602001604051809103902081905550600360008373ffffffffffffffffffffffffffffffffffffffff1673ffffffffffffffffffffffffffffffffffffffff16815260200190815260200160002083908060018154018082558091505060019003906000526020600020016000909190919091509080519060200190610f8b929190611d4e565b508173ffffffffffffffffffffffffffffffffffffffff163373ffffffffffffffffffffffffffffffffffffffff1684604051610fc89190612580565b60405180910390207fc5a4d7c6b702d551bba1cd101b937c543da193f433a7f921ddc496d1dafa80a660405160405180910390a4505050565b6001602052816000526040600020818154811061101d57600080fd5b9060005260206000200160009150915050805461103990612512565b80601f016020809104026020016040519081016040528092919081815260200182805461106590612512565b80156110b25780601f10611087576101008083540402835291602001916110b2565b820191906000526020600020905b81548152906001019060200180831161109557829003601f168201915b505050505081565b6002828051602081018201805184825260208301602085012081835280955050505050506020528060005260406000206000915091509054906101000a900460ff1681565b6000825111611143576040517f08c379a000000000000000000000000000000000000000000000000000000000815260040161113a90612b84565b60405180910390fd5b6000815111611187576040517f08c379a000000000000000000000000000000000000000000000000000000000815260040161117e90612bf0565b60405180910390fd5b6005826040516111979190612580565b908152602001604051809103902060009054906101000a900460ff16156111f3576040517f08c379a00000000000000000000000000000000000000000000000000000000081526004016111ea90612c5c565b60405180910390fd5b6000339050600060405180608001604052808581526020018481526020018373ffffffffffffffffffffffffffffffffffffffff168152602001428152509050806000856040516112449190612580565b9081526020016040518091039020600082015181600001908051906020019061126e929190611d4e565b50602082015181600101908051906020019061128b929190611d4e565b5060408201518160020160006101000a81548173ffffffffffffffffffffffffffffffffffffffff021916908373ffffffffffffffffffffffffffffffffffffffff16021790555060608201518160030155905050600160008373ffffffffffffffffffffffffffffffffffffffff1673ffffffffffffffffffffffffffffffffffffffff16815260200190815260200160002084908060018154018082558091505060019003906000526020600020016000909190919091509080519060200190611358929190611d4e565b50600160058560405161136b9190612580565b908152602001604051809103902060006101000a81548160ff0219169083151502179055508173ffffffffffffffffffffffffffffffffffffffff167fe44899c2e2460a5415fe49a6b58678ff9d5c144f29d76efc790a302c22bd0ac38585426040516113da93929190612c7c565b60405180910390a250505050565b606080606060003390506000600160008373ffffffffffffffffffffffffffffffffffffffff1673ffffffffffffffffffffffffffffffffffffffff168152602001908152602001600020805480602002602001604051908101604052809291908181526020016000905b828210156114ff57838290600052602060002001805461147290612512565b80601f016020809104026020016040519081016040528092919081815260200182805461149e90612512565b80156114eb5780601f106114c0576101008083540402835291602001916114eb565b820191906000526020600020905b8154815290600101906020018083116114ce57829003601f168201915b505050505081526020019060010190611453565b5050505090506000815190506000600360008573ffffffffffffffffffffffffffffffffffffffff1673ffffffffffffffffffffffffffffffffffffffff168152602001908152602001600020805480602002602001604051908101604052809291908181526020016000905b8282101561161857838290600052602060002001805461158b90612512565b80601f01602080910402602001604051908101604052809291908181526020018280546115b790612512565b80156116045780601f106115d957610100808354040283529160200191611604565b820191906000526020600020905b8154815290600101906020018083116115e757829003601f168201915b50505050508152602001906001019061156c565b5050505090506000815190506000818461163291906128b7565b905060008167ffffffffffffffff8111156116505761164f611fde565b5b60405190808252806020026020018201604052801561168357816020015b606081526020019060019003908161166e5790505b50905060008267ffffffffffffffff8111156116a2576116a1611fde565b5b6040519080825280602002602001820160405280156116d557816020015b60608152602001906001900390816116c05790505b50905060008367ffffffffffffffff8111156116f4576116f3611fde565b5b6040519080825280602002602001820160405280156117225781602001602082028036833780820191505090505b5090506000805b888110156118d05760008a828151811061174657611745612888565b5b60200260200101519050600080826040516117619190612580565b908152602001604051809103902090508187858151811061178557611784612888565b5b602002602001018190525080600101805461179f90612512565b80601f01602080910402602001604051908101604052809291908181526020018280546117cb90612512565b80156118185780601f106117ed57610100808354040283529160200191611818565b820191906000526020600020905b8154815290600101906020018083116117fb57829003601f168201915b50505050508685815181106118305761182f612888565b5b60200260200101819052508060020160009054906101000a900473ffffffffffffffffffffffffffffffffffffffff1685858151811061187357611872612888565b5b602002602001019073ffffffffffffffffffffffffffffffffffffffff16908173ffffffffffffffffffffffffffffffffffffffff168152505083806118b890612cc1565b945050505080806118c890612cc1565b915050611729565b5060005b86811015611b5a5760008882815181106118f1576118f0612888565b5b602002602001015190506000808260405161190c9190612580565b9081526020016040518091039020905060028260405161192c9190612580565b908152602001604051809103902060008e73ffffffffffffffffffffffffffffffffffffffff1673ffffffffffffffffffffffffffffffffffffffff16815260200190815260200160002060009054906101000a900460ff1680156119e157508c73ffffffffffffffffffffffffffffffffffffffff168160020160009054906101000a900473ffffffffffffffffffffffffffffffffffffffff1673ffffffffffffffffffffffffffffffffffffffff1614155b15611b455787841015611b3d5781878581518110611a0257611a01612888565b5b6020026020010181905250806001018054611a1c90612512565b80601f0160208091040260200160405190810160405280929190818152602001828054611a4890612512565b8015611a955780601f10611a6a57610100808354040283529160200191611a95565b820191906000526020600020905b815481529060010190602001808311611a7857829003601f168201915b5050505050868581518110611aad57611aac612888565b5b60200260200101819052508060020160009054906101000a900473ffffffffffffffffffffffffffffffffffffffff16858581518110611af057611aef612888565b5b602002602001019073ffffffffffffffffffffffffffffffffffffffff16908173ffffffffffffffffffffffffffffffffffffffff16815250508380611b3590612cc1565b945050611b44565b5050611b5a565b5b50508080611b5290612cc1565b9150506118d4565b508067ffffffffffffffff811115611b7557611b74611fde565b5b604051908082528060200260200182016040528015611ba857816020015b6060815260200190600190039081611b935790505b509c508067ffffffffffffffff811115611bc557611bc4611fde565b5b604051908082528060200260200182016040528015611bf857816020015b6060815260200190600190039081611be35790505b509b508067ffffffffffffffff811115611c1557611c14611fde565b5b604051908082528060200260200182016040528015611c435781602001602082028036833780820191505090505b509a5060005b81811015611d3e57848181518110611c6457611c63612888565b5b60200260200101518e8281518110611c7f57611c7e612888565b5b6020026020010181905250838181518110611c9d57611c9c612888565b5b60200260200101518d8281518110611cb857611cb7612888565b5b6020026020010181905250828181518110611cd657611cd5612888565b5b60200260200101518c8281518110611cf157611cf0612888565b5b602002602001019073ffffffffffffffffffffffffffffffffffffffff16908173ffffffffffffffffffffffffffffffffffffffff16815250508080611d3690612cc1565b915050611c49565b5050505050505050505050909192565b828054611d5a90612512565b90600052602060002090601f016020900481019282611d7c5760008555611dc3565b82601f10611d9557805160ff1916838001178555611dc3565b82800160010185558215611dc3579182015b82811115611dc2578251825591602001919060010190611da7565b5b509050611dd09190611e14565b5090565b508054611de090612512565b6000825580601f10611df25750611e11565b601f016020900490600052602060002090810190611e109190611e14565b5b50565b5b80821115611e2d576000816000905550600101611e15565b5090565b6000604051905090565b600080fd5b600080fd5b600073ffffffffffffffffffffffffffffffffffffffff82169050919050565b6000611e7082611e45565b9050919050565b611e8081611e65565b8114611e8b57600080fd5b50565b600081359050611e9d81611e77565b92915050565b6000819050919050565b611eb681611ea3565b8114611ec157600080fd5b50565b600081359050611ed381611ead565b92915050565b60008060408385031215611ef057611eef611e3b565b5b6000611efe85828601611e8e565b9250506020611f0f85828601611ec4565b9150509250929050565b600081519050919050565b600082825260208201905092915050565b60005b83811015611f53578082015181840152602081019050611f38565b83811115611f62576000848401525b50505050565b6000601f19601f8301169050919050565b6000611f8482611f19565b611f8e8185611f24565b9350611f9e818560208601611f35565b611fa781611f68565b840191505092915050565b60006020820190508181036000830152611fcc8184611f79565b905092915050565b600080fd5b600080fd5b7f4e487b7100000000000000000000000000000000000000000000000000000000600052604160045260246000fd5b61201682611f68565b810181811067ffffffffffffffff8211171561203557612034611fde565b5b80604052505050565b6000612048611e31565b9050612054828261200d565b919050565b600067ffffffffffffffff82111561207457612073611fde565b5b61207d82611f68565b9050602081019050919050565b82818337600083830152505050565b60006120ac6120a784612059565b61203e565b9050828152602081018484840111156120c8576120c7611fd9565b5b6120d384828561208a565b509392505050565b600082601f8301126120f0576120ef611fd4565b5b8135612100848260208601612099565b91505092915050565b600080604083850312156121205761211f611e3b565b5b600083013567ffffffffffffffff81111561213e5761213d611e40565b5b61214a858286016120db565b925050602061215b85828601611e8e565b9150509250929050565b60008115159050919050565b61217a81612165565b82525050565b60006020820190506121956000830184612171565b92915050565b6000602082840312156121b1576121b0611e3b565b5b600082013567ffffffffffffffff8111156121cf576121ce611e40565b5b6121db848285016120db565b91505092915050565b6121ed81611e65565b82525050565b6121fc81611ea3565b82525050565b6000608082019050818103600083015261221c8187611f79565b905081810360208301526122308186611f79565b905061223f60408301856121e4565b61224c60608301846121f3565b95945050505050565b6000806040838503121561226c5761226b611e3b565b5b600083013567ffffffffffffffff81111561228a57612289611e40565b5b612296858286016120db565b925050602083013567ffffffffffffffff8111156122b7576122b6611e40565b5b6122c3858286016120db565b9150509250929050565b600081519050919050565b600082825260208201905092915050565b6000819050602082019050919050565b600082825260208201905092915050565b600061231582611f19565b61231f81856122f9565b935061232f818560208601611f35565b61233881611f68565b840191505092915050565b600061234f838361230a565b905092915050565b6000602082019050919050565b600061236f826122cd565b61237981856122d8565b93508360208202850161238b856122e9565b8060005b858110156123c757848403895281516123a88582612343565b94506123b383612357565b925060208a0199505060018101905061238f565b50829750879550505050505092915050565b600081519050919050565b600082825260208201905092915050565b6000819050602082019050919050565b61240e81611e65565b82525050565b60006124208383612405565b60208301905092915050565b6000602082019050919050565b6000612444826123d9565b61244e81856123e4565b9350612459836123f5565b8060005b8381101561248a5781516124718882612414565b975061247c8361242c565b92505060018101905061245d565b5085935050505092915050565b600060608201905081810360008301526124b18186612364565b905081810360208301526124c58185612364565b905081810360408301526124d98184612439565b9050949350505050565b7f4e487b7100000000000000000000000000000000000000000000000000000000600052602260045260246000fd5b6000600282049050600182168061252a57607f821691505b6020821081141561253e5761253d6124e3565b5b50919050565b600081905092915050565b600061255a82611f19565b6125648185612544565b9350612574818560208601611f35565b80840191505092915050565b600061258c828461254f565b915081905092915050565b7f55706c6f61643a204974656d20646f6573206e6f742065786973740000000000600082015250565b60006125cd601b83611f24565b91506125d882612597565b602082019050919050565b600060208201905081810360008301526125fc816125c0565b9050919050565b7f55706c6f61643a204f6e6c79206f776e65722063616e207265766f6b6520616360008201527f6365737300000000000000000000000000000000000000000000000000000000602082015250565b600061265f602483611f24565b915061266a82612603565b604082019050919050565b6000602082019050818103600083015261268e81612652565b9050919050565b7f55706c6f61643a20416363657373206e6f742063757272656e746c792067726160008201527f6e74656400000000000000000000000000000000000000000000000000000000602082015250565b60006126f1602483611f24565b91506126fc82612695565b604082019050919050565b60006020820190508181036000830152612720816126e4565b9050919050565b7f55706c6f61643a20434944206e6f7420666f756e6420696e207669657765722760008201527f7320736861726564206c69737420696e64657800000000000000000000000000602082015250565b6000612783603383611f24565b915061278e82612727565b604082019050919050565b600060208201905081810360008301526127b281612776565b9050919050565b7f4e487b7100000000000000000000000000000000000000000000000000000000600052601160045260246000fd5b60006127f382611ea3565b91506127fe83611ea3565b925082821015612811576128106127b9565b5b828203905092915050565b7f55706c6f61643a20496e646578206f7574206f6620626f756e64730000000000600082015250565b6000612852601b83611f24565b915061285d8261281c565b602082019050919050565b6000602082019050818103600083015261288181612845565b9050919050565b7f4e487b7100000000000000000000000000000000000000000000000000000000600052603260045260246000fd5b60006128c282611ea3565b91506128cd83611ea3565b9250827fffffffffffffffffffffffffffffffffffffffffffffffffffffffffffffffff03821115612902576129016127b9565b5b828201905092915050565b7f4e487b7100000000000000000000000000000000000000000000000000000000600052603160045260246000fd5b7f55706c6f61643a20496e76616c69642076696577657220616464726573730000600082015250565b6000612972601e83611f24565b915061297d8261293c565b602082019050919050565b600060208201905081810360008301526129a181612965565b9050919050565b7f55706c6f61643a204f6e6c79206f776e65722063616e206772616e742061636360008201527f6573730000000000000000000000000000000000000000000000000000000000602082015250565b6000612a04602383611f24565b9150612a0f826129a8565b604082019050919050565b60006020820190508181036000830152612a33816129f7565b9050919050565b7f55706c6f61643a2043616e6e6f74206772616e742061636365737320746f207960008201527f6f757273656c6600000000000000000000000000000000000000000000000000602082015250565b6000612a96602783611f24565b9150612aa182612a3a565b604082019050919050565b60006020820190508181036000830152612ac581612a89565b9050919050565b7f55706c6f61643a2041636365737320616c7265616479206772616e7465640000600082015250565b6000612b02601e83611f24565b9150612b0d82612acc565b602082019050919050565b60006020820190508181036000830152612b3181612af5565b9050919050565b7f55706c6f61643a204349442063616e6e6f7420626520656d7074790000000000600082015250565b6000612b6e601b83611f24565b9150612b7982612b38565b602082019050919050565b60006020820190508181036000830152612b9d81612b61565b9050919050565b7f55706c6f61643a20486173682063616e6e6f7420626520656d70747900000000600082015250565b6000612bda601c83611f24565b9150612be582612ba4565b602082019050919050565b60006020820190508181036000830152612c0981612bcd565b9050919050565b7f55706c6f61643a2043494420616c726561647920657869737473000000000000600082015250565b6000612c46601a83611f24565b9150612c5182612c10565b602082019050919050565b60006020820190508181036000830152612c7581612c39565b9050919050565b60006060820190508181036000830152612c968186611f79565b90508181036020830152612caa8185611f79565b9050612cb960408301846121f3565b949350505050565b6000612ccc82611ea3565b91507fffffffffffffffffffffffffffffffffffffffffffffffffffffffffffffffff821415612cff57612cfe6127b9565b5b60018201905091905056fea264697066735822122060d63ffded68fd3ed246356064389dd8c232418617a25676410ccdf010c46e3d64736f6c63430008090033",
  "linkReferences": {},
  "deployedLinkReferences": {}
}