{
  "_format": "hh-sol-artifact-1",
  "contractName": "Upload",
  "sourceName": "contracts/Upload.sol",
  "abi": [
    {
      "anonymous": false,
      "inputs": [
        {
          "indexed": true,
          "internalType": "address",
          "name": "owner",
          "type": "address"
        },
        {
          "indexed": false,
          "internalType": "string",
          "name": "ipfsCid",
          "type": "string"
        },
        {
          "indexed": false,
          "internalType": "string",
          "name": "imageHash",
          "type": "string"
        },
        {
          "indexed": false,
          "internalType": "uint256",
          "name": "timestamp",
          "type": "uint256"
        }
      ],
      "name": "ImageAdded",
      "type": "event"
    },
    {
      "anonymous": false,
      "inputs": [
        {
          "indexed": true,
          "internalType": "string",
          "name": "ipfsCid",
          "type": "string"
        },
        {
          "indexed": true,
          "internalType": "address",
          "name": "owner",
          "type": "address"
        },
        {
          "indexed": true,
          "internalType": "address",
          "name": "viewer",
          "type": "address"
        }
      ],
      "name": "ItemAccessGranted",
      "type": "event"
    },
    {
      "anonymous": false,
      "inputs": [
        {
          "indexed": true,
          "internalType": "string",
          "name": "ipfsCid",
          "type": "string"
        },
        {
          "indexed": true,
          "internalType": "address",
          "name": "owner",
          "type": "address"
        },
        {
          "indexed": true,
          "internalType": "address",
          "name": "viewer",
          "type": "address"
        }
      ],
      "name": "ItemAccessRevoked",
      "type": "event"
    },
    {
      "inputs": [
        {
          "internalType": "string",
          "name": "_ipfsCid",
          "type": "string"
        },
        {
          "internalType": "string",
          "name": "_imageHash",
          "type": "string"
        }
      ],
      "name": "add",
      "outputs": [],
      "stateMutability": "nonpayable",
      "type": "function"
    },
    {
      "inputs": [
        {
          "internalType": "string",
          "name": "_cid",
          "type": "string"
        },
        {
          "internalType": "address",
          "name": "_viewer",
          "type": "address"
        }
      ],
      "name": "checkItemAccess",
      "outputs": [
        {
          "internalType": "bool",
          "name": "",
          "type": "bool"
        }
      ],
      "stateMutability": "view",
      "type": "function"
    },
    {
      "inputs": [
        {
          "internalType": "string",
          "name": "",
          "type": "string"
        }
      ],
      "name": "cidToRecord",
      "outputs": [
        {
          "internalType": "string",
          "name": "ipfsCid",
          "type": "string"
        },
        {
          "internalType": "string",
          "name": "imageHash",
          "type": "string"
        },
        {
          "internalType": "address",
          "name": "owner",
          "type": "address"
        },
        {
          "internalType": "uint256",
          "name": "timestamp",
          "type": "uint256"
        }
      ],
      "stateMutability": "view",
      "type": "function"
    },
    {
      "inputs": [],
      "name": "getAccessibleCIDsAndHashes",
      "outputs": [
        {
          "internalType": "string[]",
          "name": "cids",
          "type": "string[]"
        },
        {
          "internalType": "string[]",
          "name": "hashes",
          "type": "string[]"
        },
        {
          "internalType": "address[]",
          "name": "owners",
          "type": "address[]"
        }
      ],
      "stateMutability": "view",
      "type": "function"
    },
    {
      "inputs": [
        {
          "internalType": "string",
          "name": "_cid",
          "type": "string"
        },
        {
          "internalType": "address",
          "name": "_viewer",
          "type": "address"
        }
      ],
      "name": "grantItemAccess",
      "outputs": [],
      "stateMutability": "nonpayable",
      "type": "function"
    },
    {
      "inputs": [
        {
          "internalType": "string",
          "name": "",
          "type": "string"
        },
        {
          "internalType": "address",
          "name": "",
          "type": "address"
        }
      ],
      "name": "itemAccess",
      "outputs": [
        {
          "internalType": "bool",
          "name": "",
          "type": "bool"
        }
      ],
      "stateMutability": "view",
      "type": "function"
    },
    {
      "inputs": [
        {
          "internalType": "string",
          "name": "_cid",
          "type": "string"
        },
        {
          "internalType": "address",
          "name": "_viewer",
          "type": "address"
        }
      ],
      "name": "revokeItemAccess",
      "outputs": [],
      "stateMutability": "nonpayable",
      "type": "function"
    },
    {
      "inputs": [
        {
          "internalType": "address",
          "name": "",
          "type": "address"
        },
        {
          "internalType": "uint256",
          "name": "",
          "type": "uint256"
        }
      ],
      "name": "sharedWithUserCIDs",
      "outputs": [
        {
          "internalType": "string",
          "name": "",
          "type": "string"
        }
      ],
      "stateMutability": "view",
      "type": "function"
    },
    {
      "inputs": [
        {
          "internalType": "address",
          "name": "",
          "type": "address"
        },
        {
          "internalType": "uint256",
          "name": "",
          "type": "uint256"
        }
      ],
      "name": "userOwnedCIDs",
      "outputs": [
        {
          "internalType": "string",
          "name": "",
          "type": "string"
        }
      ],
      "stateMutability": "view",
      "type": "function"
    }
  ],
  "bytecode": "0x608060405234801561001057600080fd5b50612e78806100206000396000f3fe608060405234801561001057600080fd5b50600436106100935760003560e01c80637fc84b0f116100665780637fc84b0f146101475780638b8753f114610163578063a23e95b814610193578063ebdf86ca146101c3578063f8931721146101df57610093565b80631d0a3a55146100985780634a93aa72146100c857806351ca0791146100f85780636fc1581c14610114575b600080fd5b6100b260048036038101906100ad9190612011565b6101ff565b6040516100bf91906120ea565b60405180910390f35b6100e260048036038101906100dd9190612241565b6102b8565b6040516100ef91906122b8565b60405180910390f35b610112600480360381019061010d9190612241565b6103e9565b005b61012e600480360381019061012991906122d3565b6109d5565b60405161013e949392919061233a565b60405180910390f35b610161600480360381019061015c9190612241565b610b4b565b005b61017d60048036038101906101789190612011565b611139565b60405161018a91906120ea565b60405180910390f35b6101ad60048036038101906101a89190612241565b6111f2565b6040516101ba91906122b8565b60405180910390f35b6101dd60048036038101906101d8919061238d565b611237565b005b6101e7611520565b6040516101f6939291906125cf565b60405180910390f35b6003602052816000526040600020818154811061021b57600080fd5b906000526020600020016000915091505080546102379061264a565b80601f01602080910402602001604051908101604052809291908181526020018280546102639061264a565b80156102b05780601f10610285576101008083540402835291602001916102b0565b820191906000526020600020905b81548152906001019060200180831161029357829003601f168201915b505050505081565b60006005836040516102ca91906126b8565b908152602001604051809103902060009054906101000a900460ff166102f357600090506103e3565b6000808460405161030491906126b8565b908152602001604051809103902090508273ffffffffffffffffffffffffffffffffffffffff168160020160009054906101000a900473ffffffffffffffffffffffffffffffffffffffff1673ffffffffffffffffffffffffffffffffffffffff1614156103765760019150506103e3565b60028460405161038691906126b8565b908152602001604051809103902060008473ffffffffffffffffffffffffffffffffffffffff1673ffffffffffffffffffffffffffffffffffffffff16815260200190815260200160002060009054906101000a900460ff169150505b92915050565b6005826040516103f991906126b8565b908152602001604051809103902060009054906101000a900460ff16610454576040517f08c379a000000000000000000000000000000000000000000000000000000000815260040161044b9061271b565b60405180910390fd5b6000808360405161046591906126b8565b908152602001604051809103902090503373ffffffffffffffffffffffffffffffffffffffff168160020160009054906101000a900473ffffffffffffffffffffffffffffffffffffffff1673ffffffffffffffffffffffffffffffffffffffff1614610507576040517f08c379a00000000000000000000000000000000000000000000000000000000081526004016104fe906127ad565b60405180910390fd5b60028360405161051791906126b8565b908152602001604051809103902060008373ffffffffffffffffffffffffffffffffffffffff1673ffffffffffffffffffffffffffffffffffffffff16815260200190815260200160002060009054906101000a900460ff166105af576040517f08c379a00000000000000000000000000000000000000000000000000000000081526004016105a69061283f565b60405180910390fd5b60006002846040516105c191906126b8565b908152602001604051809103902060008473ffffffffffffffffffffffffffffffffffffffff1673ffffffffffffffffffffffffffffffffffffffff16815260200190815260200160002060006101000a81548160ff0219169083151502179055506000600460008473ffffffffffffffffffffffffffffffffffffffff1673ffffffffffffffffffffffffffffffffffffffff1681526020019081526020016000208460405161067291906126b8565b9081526020016040518091039020549050600081116106c6576040517f08c379a00000000000000000000000000000000000000000000000000000000081526004016106bd906128d1565b60405180910390fd5b6001816106d39190612920565b90506000600360008573ffffffffffffffffffffffffffffffffffffffff1673ffffffffffffffffffffffffffffffffffffffff16815260200190815260200160002090508080549050821061075e576040517f08c379a0000000000000000000000000000000000000000000000000000000008152600401610755906129a0565b60405180910390fd5b6001818054905061076f9190612920565b8210156108d0576000816001838054905061078a9190612920565b8154811061079b5761079a6129c0565b5b9060005260206000200180546107b09061264a565b80601f01602080910402602001604051908101604052809291908181526020018280546107dc9061264a565b80156108295780601f106107fe57610100808354040283529160200191610829565b820191906000526020600020905b81548152906001019060200180831161080c57829003601f168201915b5050505050905080828481548110610844576108436129c0565b5b906000526020600020019080519060200190610861929190611e86565b5060018361086f91906129ef565b600460008773ffffffffffffffffffffffffffffffffffffffff1673ffffffffffffffffffffffffffffffffffffffff168152602001908152602001600020826040516108bc91906126b8565b908152602001604051809103902081905550505b808054806108e1576108e0612a45565b5b6001900381819060005260206000200160006108fd9190611f0c565b9055600460008573ffffffffffffffffffffffffffffffffffffffff1673ffffffffffffffffffffffffffffffffffffffff1681526020019081526020016000208560405161094c91906126b8565b9081526020016040518091039020600090558373ffffffffffffffffffffffffffffffffffffffff163373ffffffffffffffffffffffffffffffffffffffff168660405161099a91906126b8565b60405180910390207fe88cd3b008e8bece66a6b5cf4bef2433f7deb1dbd8718fcc1639077e69b885c160405160405180910390a45050505050565b600081805160208101820180518482526020830160208501208183528095505050505050600091509050806000018054610a0e9061264a565b80601f0160208091040260200160405190810160405280929190818152602001828054610a3a9061264a565b8015610a875780601f10610a5c57610100808354040283529160200191610a87565b820191906000526020600020905b815481529060010190602001808311610a6a57829003601f168201915b505050505090806001018054610a9c9061264a565b80601f0160208091040260200160405190810160405280929190818152602001828054610ac89061264a565b8015610b155780601f10610aea57610100808354040283529160200191610b15565b820191906000526020600020905b815481529060010190602001808311610af857829003601f168201915b5050505050908060020160009054906101000a900473ffffffffffffffffffffffffffffffffffffffff16908060030154905084565b600582604051610b5b91906126b8565b908152602001604051809103902060009054906101000a900460ff16610bb6576040517f08c379a0000000000000000000000000000000000000000000000000000000008152600401610bad9061271b565b60405180910390fd5b600073ffffffffffffffffffffffffffffffffffffffff168173ffffffffffffffffffffffffffffffffffffffff161415610c26576040517f08c379a0000000000000000000000000000000000000000000000000000000008152600401610c1d90612ac0565b60405180910390fd5b3373ffffffffffffffffffffffffffffffffffffffff168173ffffffffffffffffffffffffffffffffffffffff161415610c95576040517f08c379a0000000000000000000000000000000000000000000000000000000008152600401610c8c90612b52565b60405180910390fd5b60008083604051610ca691906126b8565b9081526020016040518091039020905060003373ffffffffffffffffffffffffffffffffffffffff168260020160009054906101000a900473ffffffffffffffffffffffffffffffffffffffff1673ffffffffffffffffffffffffffffffffffffffff161480610d7b5750600284604051610d2191906126b8565b908152602001604051809103902060003373ffffffffffffffffffffffffffffffffffffffff1673ffffffffffffffffffffffffffffffffffffffff16815260200190815260200160002060009054906101000a900460ff165b905080610dbd576040517f08c379a0000000000000000000000000000000000000000000000000000000008152600401610db490612be4565b60405180910390fd5b600284604051610dcd91906126b8565b908152602001604051809103902060008473ffffffffffffffffffffffffffffffffffffffff1673ffffffffffffffffffffffffffffffffffffffff16815260200190815260200160002060009054906101000a900460ff1615610e66576040517f08c379a0000000000000000000000000000000000000000000000000000000008152600401610e5d90612c50565b60405180910390fd5b6001600285604051610e7891906126b8565b908152602001604051809103902060008573ffffffffffffffffffffffffffffffffffffffff1673ffffffffffffffffffffffffffffffffffffffff16815260200190815260200160002060006101000a81548160ff0219169083151502179055508273ffffffffffffffffffffffffffffffffffffffff168260020160009054906101000a900473ffffffffffffffffffffffffffffffffffffffff1673ffffffffffffffffffffffffffffffffffffffff16146110c3576000600460008573ffffffffffffffffffffffffffffffffffffffff1673ffffffffffffffffffffffffffffffffffffffff16815260200190815260200160002085604051610f8091906126b8565b90815260200160405180910390205414156110c1576001600360008573ffffffffffffffffffffffffffffffffffffffff1673ffffffffffffffffffffffffffffffffffffffff16815260200190815260200160002080549050610fe491906129ef565b600460008573ffffffffffffffffffffffffffffffffffffffff1673ffffffffffffffffffffffffffffffffffffffff1681526020019081526020016000208560405161103191906126b8565b908152602001604051809103902081905550600360008473ffffffffffffffffffffffffffffffffffffffff1673ffffffffffffffffffffffffffffffffffffffff168152602001908152602001600020849080600181540180825580915050600190039060005260206000200160009091909190915090805190602001906110bb929190611e86565b506110c2565b5b5b8273ffffffffffffffffffffffffffffffffffffffff163373ffffffffffffffffffffffffffffffffffffffff16856040516110ff91906126b8565b60405180910390207fc5a4d7c6b702d551bba1cd101b937c543da193f433a7f921ddc496d1dafa80a660405160405180910390a450505050565b6001602052816000526040600020818154811061115557600080fd5b906000526020600020016000915091505080546111719061264a565b80601f016020809104026020016040519081016040528092919081815260200182805461119d9061264a565b80156111ea5780601f106111bf576101008083540402835291602001916111ea565b820191906000526020600020905b8154815290600101906020018083116111cd57829003601f168201915b505050505081565b6002828051602081018201805184825260208301602085012081835280955050505050506020528060005260406000206000915091509054906101000a900460ff1681565b600082511161127b576040517f08c379a000000000000000000000000000000000000000000000000000000000815260040161127290612cbc565b60405180910390fd5b60008151116112bf576040517f08c379a00000000000000000000000000000000000000000000000000000000081526004016112b690612d28565b60405180910390fd5b6005826040516112cf91906126b8565b908152602001604051809103902060009054906101000a900460ff161561132b576040517f08c379a000000000000000000000000000000000000000000000000000000000815260040161132290612d94565b60405180910390fd5b6000339050600060405180608001604052808581526020018481526020018373ffffffffffffffffffffffffffffffffffffffff1681526020014281525090508060008560405161137c91906126b8565b908152602001604051809103902060008201518160000190805190602001906113a6929190611e86565b5060208201518160010190805190602001906113c3929190611e86565b5060408201518160020160006101000a81548173ffffffffffffffffffffffffffffffffffffffff021916908373ffffffffffffffffffffffffffffffffffffffff16021790555060608201518160030155905050600160008373ffffffffffffffffffffffffffffffffffffffff1673ffffffffffffffffffffffffffffffffffffffff16815260200190815260200160002084908060018154018082558091505060019003906000526020600020016000909190919091509080519060200190611490929190611e86565b5060016005856040516114a391906126b8565b908152602001604051809103902060006101000a81548160ff0219169083151502179055508173ffffffffffffffffffffffffffffffffffffffff167fe44899c2e2460a5415fe49a6b58678ff9d5c144f29d76efc790a302c22bd0ac385854260405161151293929190612db4565b60405180910390a250505050565b606080606060003390506000600160008373ffffffffffffffffffffffffffffffffffffffff1673ffffffffffffffffffffffffffffffffffffffff168152602001908152602001600020805480602002602001604051908101604052809291908181526020016000905b828210156116375783829060005260206000200180546115aa9061264a565b80601f01602080910402602001604051908101604052809291908181526020018280546115d69061264a565b80156116235780601f106115f857610100808354040283529160200191611623565b820191906000526020600020905b81548152906001019060200180831161160657829003601f168201915b50505050508152602001906001019061158b565b5050505090506000815190506000600360008573ffffffffffffffffffffffffffffffffffffffff1673ffffffffffffffffffffffffffffffffffffffff168152602001908152602001600020805480602002602001604051908101604052809291908181526020016000905b828210156117505783829060005260206000200180546116c39061264a565b80601f01602080910402602001604051908101604052809291908181526020018280546116ef9061264a565b801561173c5780601f106117115761010080835404028352916020019161173c565b820191906000526020600020905b81548152906001019060200180831161171f57829003601f168201915b5050505050815260200190600101906116a4565b5050505090506000815190506000818461176a91906129ef565b905060008167ffffffffffffffff81111561178857611787612116565b5b6040519080825280602002602001820160405280156117bb57816020015b60608152602001906001900390816117a65790505b50905060008267ffffffffffffffff8111156117da576117d9612116565b5b60405190808252806020026020018201604052801561180d57816020015b60608152602001906001900390816117f85790505b50905060008367ffffffffffffffff81111561182c5761182b612116565b5b60405190808252806020026020018201604052801561185a5781602001602082028036833780820191505090505b5090506000805b88811015611a085760008a828151811061187e5761187d6129c0565b5b602002602001015190506000808260405161189991906126b8565b90815260200160405180910390209050818785815181106118bd576118bc6129c0565b5b60200260200101819052508060010180546118d79061264a565b80601f01602080910402602001604051908101604052809291908181526020018280546119039061264a565b80156119505780601f1061192557610100808354040283529160200191611950565b820191906000526020600020905b81548152906001019060200180831161193357829003601f168201915b5050505050868581518110611968576119676129c0565b5b60200260200101819052508060020160009054906101000a900473ffffffffffffffffffffffffffffffffffffffff168585815181106119ab576119aa6129c0565b5b602002602001019073ffffffffffffffffffffffffffffffffffffffff16908173ffffffffffffffffffffffffffffffffffffffff168152505083806119f090612df9565b94505050508080611a0090612df9565b915050611861565b5060005b86811015611c92576000888281518110611a2957611a286129c0565b5b6020026020010151905060008082604051611a4491906126b8565b90815260200160405180910390209050600282604051611a6491906126b8565b908152602001604051809103902060008e73ffffffffffffffffffffffffffffffffffffffff1673ffffffffffffffffffffffffffffffffffffffff16815260200190815260200160002060009054906101000a900460ff168015611b1957508c73ffffffffffffffffffffffffffffffffffffffff168160020160009054906101000a900473ffffffffffffffffffffffffffffffffffffffff1673ffffffffffffffffffffffffffffffffffffffff1614155b15611c7d5787841015611c755781878581518110611b3a57611b396129c0565b5b6020026020010181905250806001018054611b549061264a565b80601f0160208091040260200160405190810160405280929190818152602001828054611b809061264a565b8015611bcd5780601f10611ba257610100808354040283529160200191611bcd565b820191906000526020600020905b815481529060010190602001808311611bb057829003601f168201915b5050505050868581518110611be557611be46129c0565b5b60200260200101819052508060020160009054906101000a900473ffffffffffffffffffffffffffffffffffffffff16858581518110611c2857611c276129c0565b5b602002602001019073ffffffffffffffffffffffffffffffffffffffff16908173ffffffffffffffffffffffffffffffffffffffff16815250508380611c6d90612df9565b945050611c7c565b5050611c92565b5b50508080611c8a90612df9565b915050611a0c565b508067ffffffffffffffff811115611cad57611cac612116565b5b604051908082528060200260200182016040528015611ce057816020015b6060815260200190600190039081611ccb5790505b509c508067ffffffffffffffff811115611cfd57611cfc612116565b5b604051908082528060200260200182016040528015611d3057816020015b6060815260200190600190039081611d1b5790505b509b508067ffffffffffffffff811115611d4d57611d4c612116565b5b604051908082528060200260200182016040528015611d7b5781602001602082028036833780820191505090505b509a5060005b81811015611e7657848181518110611d9c57611d9b6129c0565b5b60200260200101518e8281518110611db757611db66129c0565b5b6020026020010181905250838181518110611dd557611dd46129c0565b5b60200260200101518d8281518110611df057611def6129c0565b5b6020026020010181905250828181518110611e0e57611e0d6129c0565b5b60200260200101518c8281518110611e2957611e286129c0565b5b602002602001019073ffffffffffffffffffffffffffffffffffffffff16908173ffffffffffffffffffffffffffffffffffffffff16815250508080611e6e90612df9565b915050611d81565b5050505050505050505050909192565b828054611e929061264a565b90600052602060002090601f016020900481019282611eb45760008555611efb565b82601f10611ecd57805160ff1916838001178555611efb565b82800160010185558215611efb579182015b82811115611efa578251825591602001919060010190611edf565b5b509050611f089190611f4c565b5090565b508054611f189061264a565b6000825580601f10611f2a5750611f49565b601f016020900490600052602060002090810190611f489190611f4c565b5b50565b5b80821115611f65576000816000905550600101611f4d565b5090565b6000604051905090565b600080fd5b600080fd5b600073ffffffffffffffffffffffffffffffffffffffff82169050919050565b6000611fa882611f7d565b9050919050565b611fb881611f9d565b8114611fc357600080fd5b50565b600081359050611fd581611faf565b92915050565b6000819050919050565b611fee81611fdb565b8114611ff957600080fd5b50565b60008135905061200b81611fe5565b92915050565b6000806040838503121561202857612027611f73565b5b600061203685828601611fc6565b925050602061204785828601611ffc565b9150509250929050565b600081519050919050565b600082825260208201905092915050565b60005b8381101561208b578082015181840152602081019050612070565b8381111561209a576000848401525b50505050565b6000601f19601f8301169050919050565b60006120bc82612051565b6120c6818561205c565b93506120d681856020860161206d565b6120df816120a0565b840191505092915050565b6000602082019050818103600083015261210481846120b1565b905092915050565b600080fd5b600080fd5b7f4e487b7100000000000000000000000000000000000000000000000000000000600052604160045260246000fd5b61214e826120a0565b810181811067ffffffffffffffff8211171561216d5761216c612116565b5b80604052505050565b6000612180611f69565b905061218c8282612145565b919050565b600067ffffffffffffffff8211156121ac576121ab612116565b5b6121b5826120a0565b9050602081019050919050565b82818337600083830152505050565b60006121e46121df84612191565b612176565b905082815260208101848484011115612200576121ff612111565b5b61220b8482856121c2565b509392505050565b600082601f8301126122285761222761210c565b5b81356122388482602086016121d1565b91505092915050565b6000806040838503121561225857612257611f73565b5b600083013567ffffffffffffffff81111561227657612275611f78565b5b61228285828601612213565b925050602061229385828601611fc6565b9150509250929050565b60008115159050919050565b6122b28161229d565b82525050565b60006020820190506122cd60008301846122a9565b92915050565b6000602082840312156122e9576122e8611f73565b5b600082013567ffffffffffffffff81111561230757612306611f78565b5b61231384828501612213565b91505092915050565b61232581611f9d565b82525050565b61233481611fdb565b82525050565b6000608082019050818103600083015261235481876120b1565b9050818103602083015261236881866120b1565b9050612377604083018561231c565b612384606083018461232b565b95945050505050565b600080604083850312156123a4576123a3611f73565b5b600083013567ffffffffffffffff8111156123c2576123c1611f78565b5b6123ce85828601612213565b925050602083013567ffffffffffffffff8111156123ef576123ee611f78565b5b6123fb85828601612213565b9150509250929050565b600081519050919050565b600082825260208201905092915050565b6000819050602082019050919050565b600082825260208201905092915050565b600061244d82612051565b6124578185612431565b935061246781856020860161206d565b612470816120a0565b840191505092915050565b60006124878383612442565b905092915050565b6000602082019050919050565b60006124a782612405565b6124b18185612410565b9350836020820285016124c385612421565b8060005b858110156124ff57848403895281516124e0858261247b565b94506124eb8361248f565b925060208a019950506001810190506124c7565b50829750879550505050505092915050565b600081519050919050565b600082825260208201905092915050565b6000819050602082019050919050565b61254681611f9d565b82525050565b6000612558838361253d565b60208301905092915050565b6000602082019050919050565b600061257c82612511565b612586818561251c565b93506125918361252d565b8060005b838110156125c25781516125a9888261254c565b97506125b483612564565b925050600181019050612595565b5085935050505092915050565b600060608201905081810360008301526125e9818661249c565b905081810360208301526125fd818561249c565b905081810360408301526126118184612571565b9050949350505050565b7f4e487b7100000000000000000000000000000000000000000000000000000000600052602260045260246000fd5b6000600282049050600182168061266257607f821691505b602082108114156126765761267561261b565b5b50919050565b600081905092915050565b600061269282612051565b61269c818561267c565b93506126ac81856020860161206d565b80840191505092915050565b60006126c48284612687565b915081905092915050565b7f55706c6f61643a204974656d20646f6573206e6f742065786973740000000000600082015250565b6000612705601b8361205c565b9150612710826126cf565b602082019050919050565b60006020820190508181036000830152612734816126f8565b9050919050565b7f55706c6f61643a204f6e6c79206f776e65722063616e207265766f6b6520616360008201527f6365737300000000000000000000000000000000000000000000000000000000602082015250565b600061279760248361205c565b91506127a28261273b565b604082019050919050565b600060208201905081810360008301526127c68161278a565b9050919050565b7f55706c6f61643a20416363657373206e6f742063757272656e746c792067726160008201527f6e74656400000000000000000000000000000000000000000000000000000000602082015250565b600061282960248361205c565b9150612834826127cd565b604082019050919050565b600060208201905081810360008301526128588161281c565b9050919050565b7f55706c6f61643a20434944206e6f7420666f756e6420696e207669657765722760008201527f7320736861726564206c69737420696e64657800000000000000000000000000602082015250565b60006128bb60338361205c565b91506128c68261285f565b604082019050919050565b600060208201905081810360008301526128ea816128ae565b9050919050565b7f4e487b7100000000000000000000000000000000000000000000000000000000600052601160045260246000fd5b600061292b82611fdb565b915061293683611fdb565b925082821015612949576129486128f1565b5b828203905092915050565b7f55706c6f61643a20496e646578206f7574206f6620626f756e64730000000000600082015250565b600061298a601b8361205c565b915061299582612954565b602082019050919050565b600060208201905081810360008301526129b98161297d565b9050919050565b7f4e487b7100000000000000000000000000000000000000000000000000000000600052603260045260246000fd5b60006129fa82611fdb565b9150612a0583611fdb565b9250827fffffffffffffffffffffffffffffffffffffffffffffffffffffffffffffffff03821115612a3a57612a396128f1565b5b828201905092915050565b7f4e487b7100000000000000000000000000000000000000000000000000000000600052603160045260246000fd5b7f55706c6f61643a20496e76616c69642076696577657220616464726573730000600082015250565b6000612aaa601e8361205c565b9150612ab582612a74565b602082019050919050565b60006020820190508181036000830152612ad981612a9d565b9050919050565b7f55706c6f61643a2043616e6e6f74206772616e742061636365737320746f207960008201527f6f757273656c6600000000000000000000000000000000000000000000000000602082015250565b6000612b3c60278361205c565b9150612b4782612ae0565b604082019050919050565b60006020820190508181036000830152612b6b81612b2f565b9050919050565b7f55706c6f61643a2043616c6c6572206c61636b73207065726d697373696f6e2060008201527f746f206772616e74206163636573730000000000000000000000000000000000602082015250565b6000612bce602f8361205c565b9150612bd982612b72565b604082019050919050565b60006020820190508181036000830152612bfd81612bc1565b9050919050565b7f55706c6f61643a2041636365737320616c7265616479206772616e7465640000600082015250565b6000612c3a601e8361205c565b9150612c4582612c04565b602082019050919050565b60006020820190508181036000830152612c6981612c2d565b9050919050565b7f55706c6f61643a204349442063616e6e6f7420626520656d7074790000000000600082015250565b6000612ca6601b8361205c565b9150612cb182612c70565b602082019050919050565b60006020820190508181036000830152612cd581612c99565b9050919050565b7f55706c6f61643a20486173682063616e6e6f7420626520656d70747900000000600082015250565b6000612d12601c8361205c565b9150612d1d82612cdc565b602082019050919050565b60006020820190508181036000830152612d4181612d05565b9050919050565b7f55706c6f61643a2043494420616c726561647920657869737473000000000000600082015250565b6000612d7e601a8361205c565b9150612d8982612d48565b602082019050919050565b60006020820190508181036000830152612dad81612d71565b9050919050565b60006060820190508181036000830152612dce81866120b1565b90508181036020830152612de281856120b1565b9050612df1604083018461232b565b949350505050565b6000612e0482611fdb565b91507fffffffffffffffffffffffffffffffffffffffffffffffffffffffffffffffff821415612e3757612e366128f1565b5b60018201905091905056fea2646970667358221220016864a7af14c2b1a07300e56ab920b399735ea84ebbb10d02f64e8abef9c14664736f6c63430008090033",
  "linkReferences": {},
  "deployedLinkReferences": {}
}