{
  "_format": "hh-sol-artifact-1",
  "contractName": "Upload",
  "sourceName": "contracts/Upload.sol",
  "abi": [
    {
      "anonymous": false,
      "inputs": [
        {
          "indexed": true,
          "internalType": "address",
          "name": "owner",
          "type": "address"
        },
        {
          "indexed": true,
          "internalType": "address",
          "name": "viewer",
          "type": "address"
        },
        {
          "indexed": false,
          "internalType": "bool",
          "name": "granted",
          "type": "bool"
        }
      ],
      "name": "AccessChanged",
      "type": "event"
    },
    {
      "anonymous": false,
      "inputs": [
        {
          "indexed": true,
          "internalType": "address",
          "name": "owner",
          "type": "address"
        },
        {
          "indexed": false,
          "internalType": "string",
          "name": "ipfsCid",
          "type": "string"
        },
        {
          "indexed": false,
          "internalType": "string",
          "name": "imageHash",
          "type": "string"
        },
        {
          "indexed": false,
          "internalType": "uint256",
          "name": "timestamp",
          "type": "uint256"
        }
      ],
      "name": "ImageAdded",
      "type": "event"
    },
    {
      "inputs": [
        {
          "internalType": "address",
          "name": "",
          "type": "address"
        },
        {
          "internalType": "uint256",
          "name": "",
          "type": "uint256"
        }
      ],
      "name": "accessList",
      "outputs": [
        {
          "internalType": "address",
          "name": "user",
          "type": "address"
        },
        {
          "internalType": "bool",
          "name": "access",
          "type": "bool"
        }
      ],
      "stateMutability": "view",
      "type": "function"
    },
    {
      "inputs": [
        {
          "internalType": "address",
          "name": "_user",
          "type": "address"
        },
        {
          "internalType": "string",
          "name": "_ipfsCid",
          "type": "string"
        },
        {
          "internalType": "string",
          "name": "_imageHash",
          "type": "string"
        }
      ],
      "name": "add",
      "outputs": [],
      "stateMutability": "nonpayable",
      "type": "function"
    },
    {
      "inputs": [
        {
          "internalType": "address",
          "name": "_viewer",
          "type": "address"
        }
      ],
      "name": "allow",
      "outputs": [],
      "stateMutability": "nonpayable",
      "type": "function"
    },
    {
      "inputs": [
        {
          "internalType": "address",
          "name": "_owner",
          "type": "address"
        },
        {
          "internalType": "address",
          "name": "_viewer",
          "type": "address"
        }
      ],
      "name": "checkAccess",
      "outputs": [
        {
          "internalType": "bool",
          "name": "",
          "type": "bool"
        }
      ],
      "stateMutability": "view",
      "type": "function"
    },
    {
      "inputs": [
        {
          "internalType": "address",
          "name": "_viewer",
          "type": "address"
        }
      ],
      "name": "disallow",
      "outputs": [],
      "stateMutability": "nonpayable",
      "type": "function"
    },
    {
      "inputs": [
        {
          "internalType": "address",
          "name": "_user",
          "type": "address"
        }
      ],
      "name": "display",
      "outputs": [
        {
          "internalType": "string[]",
          "name": "cids",
          "type": "string[]"
        },
        {
          "internalType": "string[]",
          "name": "hashes",
          "type": "string[]"
        }
      ],
      "stateMutability": "view",
      "type": "function"
    },
    {
      "inputs": [
        {
          "internalType": "address",
          "name": "",
          "type": "address"
        },
        {
          "internalType": "uint256",
          "name": "",
          "type": "uint256"
        }
      ],
      "name": "imageData",
      "outputs": [
        {
          "internalType": "string",
          "name": "ipfsCid",
          "type": "string"
        },
        {
          "internalType": "string",
          "name": "imageHash",
          "type": "string"
        },
        {
          "internalType": "uint256",
          "name": "timestamp",
          "type": "uint256"
        }
      ],
      "stateMutability": "view",
      "type": "function"
    },
    {
      "inputs": [],
      "name": "shareAccess",
      "outputs": [
        {
          "components": [
            {
              "internalType": "address",
              "name": "user",
              "type": "address"
            },
            {
              "internalType": "bool",
              "name": "access",
              "type": "bool"
            }
          ],
          "internalType": "struct Upload.Access[]",
          "name": "",
          "type": "tuple[]"
        }
      ],
      "stateMutability": "view",
      "type": "function"
    }
  ],
  "bytecode": "0x608060405234801561001057600080fd5b506121ef806100206000396000f3fe608060405234801561001057600080fd5b50600436106100885760003560e01c8063a9ed9cb81161005b578063a9ed9cb81461013c578063bc8bef8114610158578063eb39113f14610176578063ff9913e8146101a757610088565b806346bc7fd91461008d57806362e1f745146100a957806370c2b419146100d957806382a2f29a1461010a575b600080fd5b6100a760048036038101906100a2919061177a565b6101c3565b005b6100c360048036038101906100be9190611805565b61036a565b6040516100d09190611860565b60405180910390f35b6100f360048036038101906100ee91906118b1565b610434565b604051610101929190611900565b60405180910390f35b610124600480360381019061011f91906118b1565b61049e565b604051610133939291906119c0565b60405180910390f35b61015660048036038101906101519190611a05565b6105f5565b005b610160610a83565b60405161016d9190611b2e565b60405180910390f35b610190600480360381019061018b9190611a05565b610b8c565b60405161019e929190611c5c565b60405180910390f35b6101c160048036038101906101bc9190611a05565b610f35565b005b6000825111610207576040517f08c379a00000000000000000000000000000000000000000000000000000000081526004016101fe90611cdf565b60405180910390fd5b600081511161024b576040517f08c379a000000000000000000000000000000000000000000000000000000000815260040161024290611d71565b60405180910390fd5b6000808473ffffffffffffffffffffffffffffffffffffffff1673ffffffffffffffffffffffffffffffffffffffff168152602001908152602001600020604051806060016040528084815260200183815260200142815250908060018154018082558091505060019003906000526020600020906003020160009091909190915060008201518160000190805190602001906102e992919061151f565b50602082015181600101908051906020019061030692919061151f565b506040820151816002015550508273ffffffffffffffffffffffffffffffffffffffff167fe44899c2e2460a5415fe49a6b58678ff9d5c144f29d76efc790a302c22bd0ac383834260405161035d939291906119c0565b60405180910390a2505050565b60008173ffffffffffffffffffffffffffffffffffffffff168373ffffffffffffffffffffffffffffffffffffffff16148061042c5750600160008473ffffffffffffffffffffffffffffffffffffffff1673ffffffffffffffffffffffffffffffffffffffff16815260200190815260200160002060008373ffffffffffffffffffffffffffffffffffffffff1673ffffffffffffffffffffffffffffffffffffffff16815260200190815260200160002060009054906101000a900460ff165b905092915050565b6002602052816000526040600020818154811061045057600080fd5b90600052602060002001600091509150508060000160009054906101000a900473ffffffffffffffffffffffffffffffffffffffff16908060000160149054906101000a900460ff16905082565b600060205281600052604060002081815481106104ba57600080fd5b9060005260206000209060030201600091509150508060000180546104de90611dc0565b80601f016020809104026020016040519081016040528092919081815260200182805461050a90611dc0565b80156105575780601f1061052c57610100808354040283529160200191610557565b820191906000526020600020905b81548152906001019060200180831161053a57829003601f168201915b50505050509080600101805461056c90611dc0565b80601f016020809104026020016040519081016040528092919081815260200182805461059890611dc0565b80156105e55780601f106105ba576101008083540402835291602001916105e5565b820191906000526020600020905b8154815290600101906020018083116105c857829003601f168201915b5050505050908060020154905083565b3373ffffffffffffffffffffffffffffffffffffffff168173ffffffffffffffffffffffffffffffffffffffff161415610664576040517f08c379a000000000000000000000000000000000000000000000000000000000815260040161065b90611e64565b60405180910390fd5b600160003373ffffffffffffffffffffffffffffffffffffffff1673ffffffffffffffffffffffffffffffffffffffff16815260200190815260200160002060008273ffffffffffffffffffffffffffffffffffffffff1673ffffffffffffffffffffffffffffffffffffffff16815260200190815260200160002060009054906101000a900460ff1661072d576040517f08c379a000000000000000000000000000000000000000000000000000000000815260040161072490611ef6565b60405180910390fd5b6000600160003373ffffffffffffffffffffffffffffffffffffffff1673ffffffffffffffffffffffffffffffffffffffff16815260200190815260200160002060008373ffffffffffffffffffffffffffffffffffffffff1673ffffffffffffffffffffffffffffffffffffffff16815260200190815260200160002060006101000a81548160ff021916908315150217905550600360003373ffffffffffffffffffffffffffffffffffffffff1673ffffffffffffffffffffffffffffffffffffffff16815260200190815260200160002060008273ffffffffffffffffffffffffffffffffffffffff1673ffffffffffffffffffffffffffffffffffffffff16815260200190815260200160002060009054906101000a900460ff1661088b576040517f08c379a000000000000000000000000000000000000000000000000000000000815260040161088290611f88565b60405180910390fd5b60005b600260003373ffffffffffffffffffffffffffffffffffffffff1673ffffffffffffffffffffffffffffffffffffffff16815260200190815260200160002080549050811015610a19578173ffffffffffffffffffffffffffffffffffffffff16600260003373ffffffffffffffffffffffffffffffffffffffff1673ffffffffffffffffffffffffffffffffffffffff16815260200190815260200160002082815481106109405761093f611fa8565b5b9060005260206000200160000160009054906101000a900473ffffffffffffffffffffffffffffffffffffffff1673ffffffffffffffffffffffffffffffffffffffff161415610a06576000600260003373ffffffffffffffffffffffffffffffffffffffff1673ffffffffffffffffffffffffffffffffffffffff16815260200190815260200160002082815481106109dd576109dc611fa8565b5b9060005260206000200160000160146101000a81548160ff021916908315150217905550610a19565b8080610a1190612006565b91505061088e565b508073ffffffffffffffffffffffffffffffffffffffff163373ffffffffffffffffffffffffffffffffffffffff167f0c2e6b1ab7b47daeb309d6dc42624fc533cf3bb0a6239a3ec5aacf3df7c9f2876000604051610a789190611860565b60405180910390a350565b6060600260003373ffffffffffffffffffffffffffffffffffffffff1673ffffffffffffffffffffffffffffffffffffffff168152602001908152602001600020805480602002602001604051908101604052809291908181526020016000905b82821015610b83578382906000526020600020016040518060400160405290816000820160009054906101000a900473ffffffffffffffffffffffffffffffffffffffff1673ffffffffffffffffffffffffffffffffffffffff1673ffffffffffffffffffffffffffffffffffffffff1681526020016000820160149054906101000a900460ff16151515158152505081526020019060010190610ae4565b50505050905090565b6060803373ffffffffffffffffffffffffffffffffffffffff168373ffffffffffffffffffffffffffffffffffffffff161480610c4f5750600160008473ffffffffffffffffffffffffffffffffffffffff1673ffffffffffffffffffffffffffffffffffffffff16815260200190815260200160002060003373ffffffffffffffffffffffffffffffffffffffff1673ffffffffffffffffffffffffffffffffffffffff16815260200190815260200160002060009054906101000a900460ff165b610c8e576040517f08c379a0000000000000000000000000000000000000000000000000000000008152600401610c859061209b565b60405180910390fd5b60008060008573ffffffffffffffffffffffffffffffffffffffff1673ffffffffffffffffffffffffffffffffffffffff16815260200190815260200160002090506000818054905090508067ffffffffffffffff811115610cf357610cf261164f565b5b604051908082528060200260200182016040528015610d2657816020015b6060815260200190600190039081610d115790505b5093508067ffffffffffffffff811115610d4357610d4261164f565b5b604051908082528060200260200182016040528015610d7657816020015b6060815260200190600190039081610d615790505b50925060005b81811015610f2d57828181548110610d9757610d96611fa8565b5b90600052602060002090600302016000018054610db390611dc0565b80601f0160208091040260200160405190810160405280929190818152602001828054610ddf90611dc0565b8015610e2c5780601f10610e0157610100808354040283529160200191610e2c565b820191906000526020600020905b815481529060010190602001808311610e0f57829003601f168201915b5050505050858281518110610e4457610e43611fa8565b5b6020026020010181905250828181548110610e6257610e61611fa8565b5b90600052602060002090600302016001018054610e7e90611dc0565b80601f0160208091040260200160405190810160405280929190818152602001828054610eaa90611dc0565b8015610ef75780601f10610ecc57610100808354040283529160200191610ef7565b820191906000526020600020905b815481529060010190602001808311610eda57829003601f168201915b5050505050848281518110610f0f57610f0e611fa8565b5b60200260200101819052508080610f2590612006565b915050610d7c565b505050915091565b3373ffffffffffffffffffffffffffffffffffffffff168173ffffffffffffffffffffffffffffffffffffffff161415610fa4576040517f08c379a0000000000000000000000000000000000000000000000000000000008152600401610f9b9061212d565b60405180910390fd5b600160003373ffffffffffffffffffffffffffffffffffffffff1673ffffffffffffffffffffffffffffffffffffffff16815260200190815260200160002060008273ffffffffffffffffffffffffffffffffffffffff1673ffffffffffffffffffffffffffffffffffffffff16815260200190815260200160002060009054906101000a900460ff161561106e576040517f08c379a000000000000000000000000000000000000000000000000000000000815260040161106590612199565b60405180910390fd5b60018060003373ffffffffffffffffffffffffffffffffffffffff1673ffffffffffffffffffffffffffffffffffffffff16815260200190815260200160002060008373ffffffffffffffffffffffffffffffffffffffff1673ffffffffffffffffffffffffffffffffffffffff16815260200190815260200160002060006101000a81548160ff021916908315150217905550600360003373ffffffffffffffffffffffffffffffffffffffff1673ffffffffffffffffffffffffffffffffffffffff16815260200190815260200160002060008273ffffffffffffffffffffffffffffffffffffffff1673ffffffffffffffffffffffffffffffffffffffff16815260200190815260200160002060009054906101000a900460ff16156113255760005b600260003373ffffffffffffffffffffffffffffffffffffffff1673ffffffffffffffffffffffffffffffffffffffff1681526020019081526020016000208054905081101561131f578173ffffffffffffffffffffffffffffffffffffffff16600260003373ffffffffffffffffffffffffffffffffffffffff1673ffffffffffffffffffffffffffffffffffffffff168152602001908152602001600020828154811061124657611245611fa8565b5b9060005260206000200160000160009054906101000a900473ffffffffffffffffffffffffffffffffffffffff1673ffffffffffffffffffffffffffffffffffffffff16141561130c576001600260003373ffffffffffffffffffffffffffffffffffffffff1673ffffffffffffffffffffffffffffffffffffffff16815260200190815260200160002082815481106112e3576112e2611fa8565b5b9060005260206000200160000160146101000a81548160ff02191690831515021790555061131f565b808061131790612006565b915050611194565b506114b6565b600260003373ffffffffffffffffffffffffffffffffffffffff1673ffffffffffffffffffffffffffffffffffffffff16815260200190815260200160002060405180604001604052808373ffffffffffffffffffffffffffffffffffffffff168152602001600115158152509080600181540180825580915050600190039060005260206000200160009091909190915060008201518160000160006101000a81548173ffffffffffffffffffffffffffffffffffffffff021916908373ffffffffffffffffffffffffffffffffffffffff16021790555060208201518160000160146101000a81548160ff02191690831515021790555050506001600360003373ffffffffffffffffffffffffffffffffffffffff1673ffffffffffffffffffffffffffffffffffffffff16815260200190815260200160002060008373ffffffffffffffffffffffffffffffffffffffff1673ffffffffffffffffffffffffffffffffffffffff16815260200190815260200160002060006101000a81548160ff0219169083151502179055505b8073ffffffffffffffffffffffffffffffffffffffff163373ffffffffffffffffffffffffffffffffffffffff167f0c2e6b1ab7b47daeb309d6dc42624fc533cf3bb0a6239a3ec5aacf3df7c9f28760016040516115149190611860565b60405180910390a350565b82805461152b90611dc0565b90600052602060002090601f01602090048101928261154d5760008555611594565b82601f1061156657805160ff1916838001178555611594565b82800160010185558215611594579182015b82811115611593578251825591602001919060010190611578565b5b5090506115a191906115a5565b5090565b5b808211156115be5760008160009055506001016115a6565b5090565b6000604051905090565b600080fd5b600080fd5b600073ffffffffffffffffffffffffffffffffffffffff82169050919050565b6000611601826115d6565b9050919050565b611611816115f6565b811461161c57600080fd5b50565b60008135905061162e81611608565b92915050565b600080fd5b600080fd5b6000601f19601f8301169050919050565b7f4e487b7100000000000000000000000000000000000000000000000000000000600052604160045260246000fd5b6116878261163e565b810181811067ffffffffffffffff821117156116a6576116a561164f565b5b80604052505050565b60006116b96115c2565b90506116c5828261167e565b919050565b600067ffffffffffffffff8211156116e5576116e461164f565b5b6116ee8261163e565b9050602081019050919050565b82818337600083830152505050565b600061171d611718846116ca565b6116af565b90508281526020810184848401111561173957611738611639565b5b6117448482856116fb565b509392505050565b600082601f83011261176157611760611634565b5b813561177184826020860161170a565b91505092915050565b600080600060608486031215611793576117926115cc565b5b60006117a18682870161161f565b935050602084013567ffffffffffffffff8111156117c2576117c16115d1565b5b6117ce8682870161174c565b925050604084013567ffffffffffffffff8111156117ef576117ee6115d1565b5b6117fb8682870161174c565b9150509250925092565b6000806040838503121561181c5761181b6115cc565b5b600061182a8582860161161f565b925050602061183b8582860161161f565b9150509250929050565b60008115159050919050565b61185a81611845565b82525050565b60006020820190506118756000830184611851565b92915050565b6000819050919050565b61188e8161187b565b811461189957600080fd5b50565b6000813590506118ab81611885565b92915050565b600080604083850312156118c8576118c76115cc565b5b60006118d68582860161161f565b92505060206118e78582860161189c565b9150509250929050565b6118fa816115f6565b82525050565b600060408201905061191560008301856118f1565b6119226020830184611851565b9392505050565b600081519050919050565b600082825260208201905092915050565b60005b83811015611963578082015181840152602081019050611948565b83811115611972576000848401525b50505050565b600061198382611929565b61198d8185611934565b935061199d818560208601611945565b6119a68161163e565b840191505092915050565b6119ba8161187b565b82525050565b600060608201905081810360008301526119da8186611978565b905081810360208301526119ee8185611978565b90506119fd60408301846119b1565b949350505050565b600060208284031215611a1b57611a1a6115cc565b5b6000611a298482850161161f565b91505092915050565b600081519050919050565b600082825260208201905092915050565b6000819050602082019050919050565b611a67816115f6565b82525050565b611a7681611845565b82525050565b604082016000820151611a926000850182611a5e565b506020820151611aa56020850182611a6d565b50505050565b6000611ab78383611a7c565b60408301905092915050565b6000602082019050919050565b6000611adb82611a32565b611ae58185611a3d565b9350611af083611a4e565b8060005b83811015611b21578151611b088882611aab565b9750611b1383611ac3565b925050600181019050611af4565b5085935050505092915050565b60006020820190508181036000830152611b488184611ad0565b905092915050565b600081519050919050565b600082825260208201905092915050565b6000819050602082019050919050565b600082825260208201905092915050565b6000611b9882611929565b611ba28185611b7c565b9350611bb2818560208601611945565b611bbb8161163e565b840191505092915050565b6000611bd28383611b8d565b905092915050565b6000602082019050919050565b6000611bf282611b50565b611bfc8185611b5b565b935083602082028501611c0e85611b6c565b8060005b85811015611c4a5784840389528151611c2b8582611bc6565b9450611c3683611bda565b925060208a01995050600181019050611c12565b50829750879550505050505092915050565b60006040820190508181036000830152611c768185611be7565b90508181036020830152611c8a8184611be7565b90509392505050565b7f55706c6f61643a2049504653204349442063616e6e6f7420626520656d707479600082015250565b6000611cc9602083611934565b9150611cd482611c93565b602082019050919050565b60006020820190508181036000830152611cf881611cbc565b9050919050565b7f55706c6f61643a20496d61676520686173682063616e6e6f7420626520656d7060008201527f7479000000000000000000000000000000000000000000000000000000000000602082015250565b6000611d5b602283611934565b9150611d6682611cff565b604082019050919050565b60006020820190508181036000830152611d8a81611d4e565b9050919050565b7f4e487b7100000000000000000000000000000000000000000000000000000000600052602260045260246000fd5b60006002820490506001821680611dd857607f821691505b60208210811415611dec57611deb611d91565b5b50919050565b7f55706c6f61643a2043616e6e6f74207265766f6b65206163636573732066726f60008201527f6d20796f757273656c6600000000000000000000000000000000000000000000602082015250565b6000611e4e602a83611934565b9150611e5982611df2565b604082019050919050565b60006020820190508181036000830152611e7d81611e41565b9050919050565b7f55706c6f61643a20416363657373206e6f742063757272656e746c792067726160008201527f6e74656400000000000000000000000000000000000000000000000000000000602082015250565b6000611ee0602483611934565b9150611eeb82611e84565b604082019050919050565b60006020820190508181036000830152611f0f81611ed3565b9050919050565b7f55706c6f61643a20496e636f6e73697374656e74207374617465202d2075736560008201527f72206e6f7420696e20616363657373206c697374000000000000000000000000602082015250565b6000611f72603483611934565b9150611f7d82611f16565b604082019050919050565b60006020820190508181036000830152611fa181611f65565b9050919050565b7f4e487b7100000000000000000000000000000000000000000000000000000000600052603260045260246000fd5b7f4e487b7100000000000000000000000000000000000000000000000000000000600052601160045260246000fd5b60006120118261187b565b91507fffffffffffffffffffffffffffffffffffffffffffffffffffffffffffffffff82141561204457612043611fd7565b5b600182019050919050565b7f55706c6f61643a20596f7520646f6e2774206861766520616363657373000000600082015250565b6000612085601d83611934565b91506120908261204f565b602082019050919050565b600060208201905081810360008301526120b481612078565b9050919050565b7f55706c6f61643a2043616e6e6f74206772616e742061636365737320746f207960008201527f6f757273656c6600000000000000000000000000000000000000000000000000602082015250565b6000612117602783611934565b9150612122826120bb565b604082019050919050565b600060208201905081810360008301526121468161210a565b9050919050565b7f55706c6f61643a2041636365737320616c7265616479206772616e7465640000600082015250565b6000612183601e83611934565b915061218e8261214d565b602082019050919050565b600060208201905081810360008301526121b281612176565b905091905056fea2646970667358221220a4c68bc600023e05e7fcf1796de24819d48185016cb2cbd7d1a64fc3181b33f564736f6c63430008090033",
  "linkReferences": {},
  "deployedLinkReferences": {}
}